:020000040000FA
:060000000A128A110C280F
:10000800FE00030EF8000A08F9000A128A110429F2
:100018000A128A110F287030840078300A128A1167
:100028009E210A128A1183132030840032300A126A
:100038008A119E210A128A1183010A128A11A5289F
:1000480070282830831203138700A428CD30831228
:1000580003138700A4286D30831203138700A42894
:100068002B30831203138700A428673083120313ED
:100078008700A428E730831203138700A4282D30B3
:10008800831203138700A428EF3083120313870019
:10009800A4286F30831203138700A428AF3083127B
:1000A80003138700A428E330831203138700A428CE
:1000B800C630831203138700A428E9308312031380
:1000C8008700A428C730831203138700A428873029
:1000D800831203138700A4287B08003A03197528A4
:1000E80048287A08013A03192528033A03192A28C7
:1000F800013A03192F28073A03193428013A03193A
:100108003928033A03193E28013A031943280F3ABC
:1001180003194828013A03194D28033A03195228AC
:10012800013A03195728073A03195C28013A0319B9
:100138006128033A03196628013A03196B284828ED
:1001480008000A128A1134210A128A118312031331
:1001580030033104031DB128B228BA28861FB528F8
:10016800B628BA280130B200320886072E032F04B9
:10017800031DBF28C028C628061CC328C428C628B3
:10018800013086027703031DCA28CB28D428F7013B
:100198001E08B200B3013208F4003308F5009F14BA
:1001A8007603031DD828D928A52870087104031DD3
:1001B800DE28DF28E5280A128A1187210A128A1107
:1001C800EA280A128A1163210A128A110130F007FB
:1001D8000318F10A0030F1077108803AFF008030F7
:1001E8007F02031DF92802307002031CFC28FD2839
:1001F800FF28F001F101F601A5280A128A110C283E
:100208000B1C072908291B2983120313861B0D2998
:100218000E2912290130B0000030B10086181529C6
:1002280016291A290130AE000030AF000B108312D6
:1002380003139F18202921292429F701F70A0C13F1
:100248000B1D272928292D29F601F60A0B117D30C7
:10025800810079088A00780E8300FE0E7E0E090060
:1002680083160313861786148316031788018316CB
:100278000313850187018801013089008312031364
:1002880085018701880183160313811281110110EA
:10029800811401117D308312031381008B160B1119
:1002A800831603130C17831203130C1355309F0086
:1002B800831603139F01831203139F1408008312EC
:1002C80003138701F0307405F20000307505F30060
:1002D800720E0F39F200730EF039F204730E0F39F3
:1002E800F300F030F31D0030F3047308FB007208CC
:1002F800FA000A128A1124200A128A11831203139F
:100308000814881008008312031387010F3074053E
:10031800A80000307505A9002908FB002808FA0084
:100328000A128A1124200A128A1183120313081050
:100338008814080064008001840A04060319003444
:0403480004069F29DF
:04400E00F5E3FFFFD8
:00000001FF
